{
  "_format": "hh-sol-artifact-1",
  "contractName": "ex02",
  "sourceName": "contracts/L1/ex02.sol",
  "abi": [
    {
      "anonymous": false,
      "inputs": [
        {
          "indexed": true,
          "internalType": "address",
          "name": "previousOwner",
          "type": "address"
        },
        {
          "indexed": true,
          "internalType": "address",
          "name": "newOwner",
          "type": "address"
        }
      ],
      "name": "OwnershipTransferred",
      "type": "event"
    },
    {
      "inputs": [],
      "name": "EvaluatorContractAddress",
      "outputs": [
        {
          "internalType": "uint256",
          "name": "",
          "type": "uint256"
        }
      ],
      "stateMutability": "view",
      "type": "function"
    },
    {
      "inputs": [],
      "name": "Ex2Selector",
      "outputs": [
        {
          "internalType": "uint256",
          "name": "",
          "type": "uint256"
        }
      ],
      "stateMutability": "view",
      "type": "function"
    },
    {
      "inputs": [
        {
          "internalType": "uint256",
          "name": "l2_user",
          "type": "uint256"
        }
      ],
      "name": "mintNftOnL2",
      "outputs": [],
      "stateMutability": "nonpayable",
      "type": "function"
    },
    {
      "inputs": [],
      "name": "owner",
      "outputs": [
        {
          "internalType": "address",
          "name": "",
          "type": "address"
        }
      ],
      "stateMutability": "view",
      "type": "function"
    },
    {
      "inputs": [],
      "name": "renounceOwnership",
      "outputs": [],
      "stateMutability": "nonpayable",
      "type": "function"
    },
    {
      "inputs": [
        {
          "internalType": "uint256",
          "name": "_evaluatorContractAddress",
          "type": "uint256"
        }
      ],
      "name": "setEvaluatorContractAddress",
      "outputs": [],
      "stateMutability": "nonpayable",
      "type": "function"
    },
    {
      "inputs": [
        {
          "internalType": "uint256",
          "name": "_selector",
          "type": "uint256"
        }
      ],
      "name": "setEx2Selector",
      "outputs": [],
      "stateMutability": "nonpayable",
      "type": "function"
    },
    {
      "inputs": [
        {
          "internalType": "address",
          "name": "_address",
          "type": "address"
        }
      ],
      "name": "setStarknetContractAddress",
      "outputs": [],
      "stateMutability": "nonpayable",
      "type": "function"
    },
    {
      "inputs": [],
      "name": "starknetContractAddress",
      "outputs": [
        {
          "internalType": "address",
          "name": "",
          "type": "address"
        }
      ],
      "stateMutability": "view",
      "type": "function"
    },
    {
      "inputs": [
        {
          "internalType": "address",
          "name": "newOwner",
          "type": "address"
        }
      ],
      "name": "transferOwnership",
      "outputs": [],
      "stateMutability": "nonpayable",
      "type": "function"
    }
  ],
  "bytecode": "0x608060405234801561001057600080fd5b5061002d61002261003260201b60201c565b61003a60201b60201c565b6100fe565b600033905090565b60008060009054906101000a900473ffffffffffffffffffffffffffffffffffffffff169050816000806101000a81548173ffffffffffffffffffffffffffffffffffffffff021916908373ffffffffffffffffffffffffffffffffffffffff1602179055508173ffffffffffffffffffffffffffffffffffffffff168173ffffffffffffffffffffffffffffffffffffffff167f8be0079c531659141344cd1fd0a4f28419497f9722a3daafe3b4186f6b6457e060405160405180910390a35050565b6109958061010d6000396000f3fe608060405234801561001057600080fd5b506004361061009e5760003560e01c806367885c9d1161006657806367885c9d14610133578063715018a6146101515780638da5cb5b1461015b578063f2fde38b14610179578063fea40e12146101955761009e565b806308d1fb25146100a35780630ae1d483146100bf5780634095fdec146100dd5780635799b275146100f95780635e0f84ff14610115575b600080fd5b6100bd60048036038101906100b89190610664565b6101b1565b005b6100c76101c3565b6040516100d49190610831565b60405180910390f35b6100f760048036038101906100f29190610612565b6101c9565b005b610113600480360381019061010e9190610664565b610215565b005b61011d61038a565b60405161012a91906107d6565b60405180910390f35b61013b6103b0565b6040516101489190610831565b60405180910390f35b6101596103b6565b005b6101636103ca565b60405161017091906107d6565b60405180910390f35b610193600480360381019061018e9190610612565b6103f3565b005b6101af60048036038101906101aa9190610664565b610477565b005b6101b9610489565b8060038190555050565b60035481565b6101d1610489565b80600160006101000a81548173ffffffffffffffffffffffffffffffffffffffff021916908373ffffffffffffffffffffffffffffffffffffffff16021790555050565b6000600167ffffffffffffffff811115610258577f4e487b7100000000000000000000000000000000000000000000000000000000600052604160045260246000fd5b6040519080825280602002602001820160405280156102865781602001602082028036833780820191505090505b50905081816000815181106102c4577f4e487b7100000000000000000000000000000000000000000000000000000000600052603260045260246000fd5b602002602001018181525050600160009054906101000a900473ffffffffffffffffffffffffffffffffffffffff1673ffffffffffffffffffffffffffffffffffffffff16633e3aa6c5600354600254846040518463ffffffff1660e01b81526004016103339392919061084c565b602060405180830381600087803b15801561034d57600080fd5b505af1158015610361573d6000803e3d6000fd5b505050506040513d601f19601f82011682018060405250810190610385919061063b565b505050565b600160009054906101000a900473ffffffffffffffffffffffffffffffffffffffff1681565b60025481565b6103be610489565b6103c86000610507565b565b60008060009054906101000a900473ffffffffffffffffffffffffffffffffffffffff16905090565b6103fb610489565b600073ffffffffffffffffffffffffffffffffffffffff168173ffffffffffffffffffffffffffffffffffffffff16141561046b576040517f08c379a0000000000000000000000000000000000000000000000000000000008152600401610462906107f1565b60405180910390fd5b61047481610507565b50565b61047f610489565b8060028190555050565b6104916105cb565b73ffffffffffffffffffffffffffffffffffffffff166104af6103ca565b73ffffffffffffffffffffffffffffffffffffffff1614610505576040517f08c379a00000000000000000000000000000000000000000000000000000000081526004016104fc90610811565b60405180910390fd5b565b60008060009054906101000a900473ffffffffffffffffffffffffffffffffffffffff169050816000806101000a81548173ffffffffffffffffffffffffffffffffffffffff021916908373ffffffffffffffffffffffffffffffffffffffff1602179055508173ffffffffffffffffffffffffffffffffffffffff168173ffffffffffffffffffffffffffffffffffffffff167f8be0079c531659141344cd1fd0a4f28419497f9722a3daafe3b4186f6b6457e060405160405180910390a35050565b600033905090565b6000813590506105e28161091a565b92915050565b6000815190506105f781610931565b92915050565b60008135905061060c81610948565b92915050565b60006020828403121561062457600080fd5b6000610632848285016105d3565b91505092915050565b60006020828403121561064d57600080fd5b600061065b848285016105e8565b91505092915050565b60006020828403121561067657600080fd5b6000610684848285016105fd565b91505092915050565b600061069983836107b8565b60208301905092915050565b6106ae816108d4565b82525050565b60006106bf8261089a565b6106c981856108b2565b93506106d48361088a565b8060005b838110156107055781516106ec888261068d565b97506106f7836108a5565b9250506001810190506106d8565b5085935050505092915050565b600061071f6026836108c3565b91507f4f776e61626c653a206e6577206f776e657220697320746865207a65726f206160008301527f64647265737300000000000000000000000000000000000000000000000000006020830152604082019050919050565b60006107856020836108c3565b91507f4f776e61626c653a2063616c6c6572206973206e6f7420746865206f776e65726000830152602082019050919050565b6107c181610910565b82525050565b6107d081610910565b82525050565b60006020820190506107eb60008301846106a5565b92915050565b6000602082019050818103600083015261080a81610712565b9050919050565b6000602082019050818103600083015261082a81610778565b9050919050565b600060208201905061084660008301846107c7565b92915050565b600060608201905061086160008301866107c7565b61086e60208301856107c7565b818103604083015261088081846106b4565b9050949350505050565b6000819050602082019050919050565b600081519050919050565b6000602082019050919050565b600082825260208201905092915050565b600082825260208201905092915050565b60006108df826108f0565b9050919050565b6000819050919050565b600073ffffffffffffffffffffffffffffffffffffffff82169050919050565b6000819050919050565b610923816108d4565b811461092e57600080fd5b50565b61093a816108e6565b811461094557600080fd5b50565b61095181610910565b811461095c57600080fd5b5056fea2646970667358221220a6e86923a1ca34a64eae74bd11e6a9a8d18075416b104cb62c2e47ec3aea10d664736f6c63430008000033",
  "linkReferences": {},
  "deployedLinkReferences": {}
}